:020000020000FC
:100000000C94D1020C946C020C94BE0218951895B5
:100010001895189518951895189518950C941F0211
:100020001895189518951895189518950C946601BB
:100030001895189518951895189518951895189558
:100040001895189518951895189518951895189548
:1000500018951895189518950E94E90215D10091E8
:100060007C00005049F00A95D9F00A9509F449C07E
:100070000A9509F459C0BAC0009185000093750033
:10008000009186000093760000918700009377002E
:10009000009188000093780001E000937900A6C0E9
:1000A00001E10093750000E10093760000E0009309
:1000B0008E0000917A0010E0EFE8F0E000831183F9
:1000C000AFE8B0E0ED91FC913A9770F0EFE8F0E026
:1000D000008111810A50104000831183EEE8F0E0A6
:1000E000008103950083ECCF00918E000093770090
:1000F000EFE8F0E000810093780004E000937900DD
:1001000075C002E1009375000091890000937600AC
:1001100000918A000093770000918B000093780093
:1001200001E00093790062C003E10093750000E0F4
:1001300000938C0000E000938D0000E000938E009F
:100140000091830010E0EFE8F0E000831183EFE816
:10015000F0E000811181083E23E0120770F0EFE823
:10016000F0E000811181085E134000831183ECE808
:10017000F0E0008103950083EACFEFE8F0E0008132
:100180001181043620E0120770F0EFE8F0E0008102
:1001900011810456104000831183EDE8F0E00081E6
:1001A00003950083EACFAFE8B0E0ED91FC913A9778
:1001B00070F0EFE8F0E0008111810A5010400083F8
:1001C0001183EEE8F0E0008103950083ECCF00910D
:1001D0008C000093760000918D00009377000091D1
:1001E0008E000093780004E00093790080918100F4
:1001F00090E0019600917A0010E080179107CCF40E
:10020000D89A03EC19E001501040E9F700C0000053
:10021000DA9A03EC19E001501040E9F700C0000041
:10022000DA9803EC19E001501040E9F700C0000033
:10023000D89800917A0010E08091810090E00197B9
:1002400008171907CCF4D99A03EC19E001501040B3
:10025000E9F700C00000DA9A03EC19E00150104001
:10026000E9F700C00000DA9803EC19E001501040F3
:10027000E9F700C00000D99803EC19E001501040E4
:10028000E9F700C00000EBCE0FE00ABB00E00BBBBB
:100290000FEF07BB00E008BB00E204BB00E205BBB8
:1002A00000EF01BB00EF02BB04E003BF00E00FBDA5
:1002B0000CE00EBD0AE71AED1BBD0ABD01E109BF46
:1002C0000AE005BF00EC0BBF78940895FA93EA9317
:1002D0004A933A932A931A930A933FB70FEF08BBB6
:1002E000EBE7F0E0008103950083EBE7F0E00081AD
:1002F0000370008300917B00E02FEB58F0E0008159
:10030000E02FE05AF0E0008108BB00917B001091E3
:100310007900011709F4C79802B3006F02BB01E02E
:1003200010E040917B004C5F0E94E30212B3102763
:1003300012BB03B30F7C00937E0000917E0000236C
:1003400019F400E000937F0000917E00002309F47F
:100350006DC000917E0010917F00011709F466C006
:1003600000917E0000937F00EEE7F0E0008100FF47
:1003700005C0ECE7F0E0008103950083EEE7F0E0D4
:10038000008101FF05C0ECE7F0E000810A950083E1
:10039000EEE7F0E0008102FF0CC0EAE7F0E0008148
:1003A0000395008300917A000F3118F00EE100935D
:1003B0007A00EEE7F0E0008103FF0CC0EAE7F0E02E
:1003C00000810A95008300917A00013018F401E061
:1003D00000937A00EEE7F0E0008106FF19C000E02C
:1003E0000093850000E00093860000E00093870002
:1003F00000E00093880000E00093890000E0009393
:100400008A0000E000938B0000E000937D00DB9801
:10041000EEE7F0E0008107FF04C001E000937D00FB
:10042000DB9AECE7F0E00081037000833FBF0991A5
:100430001991299139914991E991F9911895FA9376
:10044000EA931A930A931FB700917D00002329F0C5
:10045000E8E8F0E0008103950083009188000A300D
:1004600040F000E000938800E7E8F0E000810395A9
:10047000008300918700063040F000E00093870081
:10048000E6E8F0E0008103950083009186000A30E1
:1004900040F000E000938600E5E8F0E0008103957D
:1004A0000083009185000A3018F000E00093850079
:1004B000009182000093810000E00093820000918F
:1004C00084000093830000E0009384001FBF099123
:1004D0001991E991F9911895FA93EA931A930A936D
:1004E0001FB700E00BBF00E00ABF00917D000023B2
:1004F00029F0E0E8F0E0008103950083E0E8F0E017
:1005000000810F73008300918000002329F4EBE841
:10051000F0E000810395008300918B000A3040F0E9
:1005200000E000938B00EAE8F0E00081039500838F
:1005300000918A000A3040F000E000938A00E9E868
:10054000F0E0008103950083009189000A3048F0B3
:1005500000E000938B0000E000938A0000E000932D
:100560008900E2E8F0E000810395008300E40BBF1E
:100570001FBF09911991E991F9911895FA93EA939E
:100580001A930A931FB7E4E8F0E000810395008313
:100590001FBF09911991E991F9911895000088956B
:1005A000FECF00ED0DBF00E00EBFC1EBD0E00E941A
:1005B000EE02002311F00E94FE020E942C000E9415
:1005C000CE020C94CE024A951AF0000F111FFBCFF9
:1005D0000895BA93AA939A938A93089501E008958F
:1005E00020E006D0E9F70895259102D0E9F70895B3
:1005F0002D9301501040202F212B089580E396E089
:10060000FC0105911491FC013296A591B491FC0175
:10061000349625913491422F432B19F0F901E4DFF0
:1006200001C0DEDF069616E08C33910748F308958B
:100630001B0060003C0616007B000000C0F9A4B05F
:10064000999282F880908883C6A1868EFFC1C78C5C
:070650008700010203050110
:0400000300000000F9
:00000001FF
