:02000000F82BDB
:1006F600FF34FE3083168500FD30860083128501A7
:1007060086010130920012088F0705080E39920003
:10071600120890000230100603190D14043010065A
:1007260003190C140A301006031D9D2B0D03031D1F
:100736009D2B8D140C301006031DA52B0C03031DD9
:10074600A52B8C1402301006031DAE2B03300D06AC
:10075600031DAE2B0D1504301006031DB72B0330F9
:100766000C06031DB72B0C151008031DCA2B0730EA
:100776000D06031DCA2B0130920012088E070E08C3
:10078600031DC92BFF30920012088E008D01100840
:10079600031DD72B07300C06031DD72B01308E0205
:1007A6000E0A03198E018C01061C8E010F0803190F
:1007B600061CE12B0E080319E12B05140F080E0683
:1007C600031DE92B0F0A0319E92B0510110803195C
:1007D600F02B013091028610F12B86140619842B1A
:1007E600FF30920012089100842B7B2391008C012C
:0A07F6008D018E018F0183017C2B21
:02400E00FAFFB7
:00000001FF
