:020000040000FA
:020000000029D5
:040002000034003492
:100200008312900192019301940195018501860169
:10021000643091008316FE3085000D308600831215
:10022000900A05080E399500023C031913141508AD
:10023000043C0319141415080A3C031D2329130850
:10024000013C0319931415080C3C031D2B291408B9
:10025000013C031994141508023C031D33291308AB
:10026000033C031913151508043C031D3B2914080E
:10027000033C031914151508031D46291308073CF0
:10028000031D46299301920F462992031508031D69
:1002900051291408073C031D512994011208031D1C
:1002A0009203061856299201643091001008031D2C
:1002B0006529061C65291208031D05141108031978
:1002C0006429910386106529861410081202031D03
:1002D0006D291008FF3C031D051006191029643014
:0402E0009100102950
:02400E00F93F78
:00000001FF
